{
  "_format": "hh-sol-artifact-1",
  "contractName": "MembershipNFT",
  "sourceName": "contracts/MembershipNFT.sol",
  "abi": [
    {
      "inputs": [
        {
          "internalType": "address",
          "name": "initialOwner",
          "type": "address"
        }
      ],
      "stateMutability": "nonpayable",
      "type": "constructor"
    },
    {
      "inputs": [
        {
          "internalType": "address",
          "name": "sender",
          "type": "address"
        },
        {
          "internalType": "uint256",
          "name": "tokenId",
          "type": "uint256"
        },
        {
          "internalType": "address",
          "name": "owner",
          "type": "address"
        }
      ],
      "name": "ERC721IncorrectOwner",
      "type": "error"
    },
    {
      "inputs": [
        {
          "internalType": "address",
          "name": "operator",
          "type": "address"
        },
        {
          "internalType": "uint256",
          "name": "tokenId",
          "type": "uint256"
        }
      ],
      "name": "ERC721InsufficientApproval",
      "type": "error"
    },
    {
      "inputs": [
        {
          "internalType": "address",
          "name": "approver",
          "type": "address"
        }
      ],
      "name": "ERC721InvalidApprover",
      "type": "error"
    },
    {
      "inputs": [
        {
          "internalType": "address",
          "name": "operator",
          "type": "address"
        }
      ],
      "name": "ERC721InvalidOperator",
      "type": "error"
    },
    {
      "inputs": [
        {
          "internalType": "address",
          "name": "owner",
          "type": "address"
        }
      ],
      "name": "ERC721InvalidOwner",
      "type": "error"
    },
    {
      "inputs": [
        {
          "internalType": "address",
          "name": "receiver",
          "type": "address"
        }
      ],
      "name": "ERC721InvalidReceiver",
      "type": "error"
    },
    {
      "inputs": [
        {
          "internalType": "address",
          "name": "sender",
          "type": "address"
        }
      ],
      "name": "ERC721InvalidSender",
      "type": "error"
    },
    {
      "inputs": [
        {
          "internalType": "uint256",
          "name": "tokenId",
          "type": "uint256"
        }
      ],
      "name": "ERC721NonexistentToken",
      "type": "error"
    },
    {
      "inputs": [
        {
          "internalType": "address",
          "name": "owner",
          "type": "address"
        }
      ],
      "name": "OwnableInvalidOwner",
      "type": "error"
    },
    {
      "inputs": [
        {
          "internalType": "address",
          "name": "account",
          "type": "address"
        }
      ],
      "name": "OwnableUnauthorizedAccount",
      "type": "error"
    },
    {
      "anonymous": false,
      "inputs": [
        {
          "indexed": true,
          "internalType": "address",
          "name": "owner",
          "type": "address"
        },
        {
          "indexed": true,
          "internalType": "address",
          "name": "approved",
          "type": "address"
        },
        {
          "indexed": true,
          "internalType": "uint256",
          "name": "tokenId",
          "type": "uint256"
        }
      ],
      "name": "Approval",
      "type": "event"
    },
    {
      "anonymous": false,
      "inputs": [
        {
          "indexed": true,
          "internalType": "address",
          "name": "owner",
          "type": "address"
        },
        {
          "indexed": true,
          "internalType": "address",
          "name": "operator",
          "type": "address"
        },
        {
          "indexed": false,
          "internalType": "bool",
          "name": "approved",
          "type": "bool"
        }
      ],
      "name": "ApprovalForAll",
      "type": "event"
    },
    {
      "anonymous": false,
      "inputs": [
        {
          "indexed": false,
          "internalType": "uint256",
          "name": "_fromTokenId",
          "type": "uint256"
        },
        {
          "indexed": false,
          "internalType": "uint256",
          "name": "_toTokenId",
          "type": "uint256"
        }
      ],
      "name": "BatchMetadataUpdate",
      "type": "event"
    },
    {
      "anonymous": false,
      "inputs": [
        {
          "indexed": false,
          "internalType": "uint256",
          "name": "_tokenId",
          "type": "uint256"
        }
      ],
      "name": "MetadataUpdate",
      "type": "event"
    },
    {
      "anonymous": false,
      "inputs": [
        {
          "indexed": true,
          "internalType": "address",
          "name": "previousOwner",
          "type": "address"
        },
        {
          "indexed": true,
          "internalType": "address",
          "name": "newOwner",
          "type": "address"
        }
      ],
      "name": "OwnershipTransferred",
      "type": "event"
    },
    {
      "anonymous": false,
      "inputs": [
        {
          "indexed": true,
          "internalType": "address",
          "name": "from",
          "type": "address"
        },
        {
          "indexed": true,
          "internalType": "address",
          "name": "to",
          "type": "address"
        },
        {
          "indexed": true,
          "internalType": "uint256",
          "name": "tokenId",
          "type": "uint256"
        }
      ],
      "name": "Transfer",
      "type": "event"
    },
    {
      "inputs": [
        {
          "internalType": "address",
          "name": "to",
          "type": "address"
        },
        {
          "internalType": "uint256",
          "name": "tokenId",
          "type": "uint256"
        }
      ],
      "name": "approve",
      "outputs": [],
      "stateMutability": "nonpayable",
      "type": "function"
    },
    {
      "inputs": [
        {
          "internalType": "address",
          "name": "owner",
          "type": "address"
        }
      ],
      "name": "balanceOf",
      "outputs": [
        {
          "internalType": "uint256",
          "name": "",
          "type": "uint256"
        }
      ],
      "stateMutability": "view",
      "type": "function"
    },
    {
      "inputs": [
        {
          "internalType": "uint256",
          "name": "tokenId",
          "type": "uint256"
        }
      ],
      "name": "getApproved",
      "outputs": [
        {
          "internalType": "address",
          "name": "",
          "type": "address"
        }
      ],
      "stateMutability": "view",
      "type": "function"
    },
    {
      "inputs": [
        {
          "internalType": "address",
          "name": "",
          "type": "address"
        }
      ],
      "name": "hasMinted",
      "outputs": [
        {
          "internalType": "bool",
          "name": "",
          "type": "bool"
        }
      ],
      "stateMutability": "view",
      "type": "function"
    },
    {
      "inputs": [
        {
          "internalType": "address",
          "name": "owner",
          "type": "address"
        },
        {
          "internalType": "address",
          "name": "operator",
          "type": "address"
        }
      ],
      "name": "isApprovedForAll",
      "outputs": [
        {
          "internalType": "bool",
          "name": "",
          "type": "bool"
        }
      ],
      "stateMutability": "view",
      "type": "function"
    },
    {
      "inputs": [
        {
          "internalType": "string",
          "name": "name",
          "type": "string"
        },
        {
          "internalType": "uint8",
          "name": "age",
          "type": "uint8"
        },
        {
          "internalType": "string",
          "name": "position",
          "type": "string"
        },
        {
          "internalType": "uint8",
          "name": "height",
          "type": "uint8"
        },
        {
          "internalType": "uint8",
          "name": "weight",
          "type": "uint8"
        },
        {
          "internalType": "string",
          "name": "image",
          "type": "string"
        },
        {
          "internalType": "string",
          "name": "metadataURI",
          "type": "string"
        }
      ],
      "name": "mint",
      "outputs": [],
      "stateMutability": "nonpayable",
      "type": "function"
    },
    {
      "inputs": [],
      "name": "name",
      "outputs": [
        {
          "internalType": "string",
          "name": "",
          "type": "string"
        }
      ],
      "stateMutability": "view",
      "type": "function"
    },
    {
      "inputs": [],
      "name": "nextTokenId",
      "outputs": [
        {
          "internalType": "uint256",
          "name": "",
          "type": "uint256"
        }
      ],
      "stateMutability": "view",
      "type": "function"
    },
    {
      "inputs": [],
      "name": "owner",
      "outputs": [
        {
          "internalType": "address",
          "name": "",
          "type": "address"
        }
      ],
      "stateMutability": "view",
      "type": "function"
    },
    {
      "inputs": [
        {
          "internalType": "uint256",
          "name": "tokenId",
          "type": "uint256"
        }
      ],
      "name": "ownerOf",
      "outputs": [
        {
          "internalType": "address",
          "name": "",
          "type": "address"
        }
      ],
      "stateMutability": "view",
      "type": "function"
    },
    {
      "inputs": [
        {
          "internalType": "uint256",
          "name": "",
          "type": "uint256"
        }
      ],
      "name": "playerProfiles",
      "outputs": [
        {
          "internalType": "string",
          "name": "name",
          "type": "string"
        },
        {
          "internalType": "uint8",
          "name": "age",
          "type": "uint8"
        },
        {
          "internalType": "string",
          "name": "position",
          "type": "string"
        },
        {
          "internalType": "uint8",
          "name": "height",
          "type": "uint8"
        },
        {
          "internalType": "uint8",
          "name": "weight",
          "type": "uint8"
        },
        {
          "internalType": "string",
          "name": "image",
          "type": "string"
        }
      ],
      "stateMutability": "view",
      "type": "function"
    },
    {
      "inputs": [],
      "name": "renounceOwnership",
      "outputs": [],
      "stateMutability": "nonpayable",
      "type": "function"
    },
    {
      "inputs": [
        {
          "internalType": "address",
          "name": "from",
          "type": "address"
        },
        {
          "internalType": "address",
          "name": "to",
          "type": "address"
        },
        {
          "internalType": "uint256",
          "name": "tokenId",
          "type": "uint256"
        }
      ],
      "name": "safeTransferFrom",
      "outputs": [],
      "stateMutability": "nonpayable",
      "type": "function"
    },
    {
      "inputs": [
        {
          "internalType": "address",
          "name": "from",
          "type": "address"
        },
        {
          "internalType": "address",
          "name": "to",
          "type": "address"
        },
        {
          "internalType": "uint256",
          "name": "tokenId",
          "type": "uint256"
        },
        {
          "internalType": "bytes",
          "name": "data",
          "type": "bytes"
        }
      ],
      "name": "safeTransferFrom",
      "outputs": [],
      "stateMutability": "nonpayable",
      "type": "function"
    },
    {
      "inputs": [
        {
          "internalType": "address",
          "name": "operator",
          "type": "address"
        },
        {
          "internalType": "bool",
          "name": "approved",
          "type": "bool"
        }
      ],
      "name": "setApprovalForAll",
      "outputs": [],
      "stateMutability": "nonpayable",
      "type": "function"
    },
    {
      "inputs": [
        {
          "internalType": "bytes4",
          "name": "interfaceId",
          "type": "bytes4"
        }
      ],
      "name": "supportsInterface",
      "outputs": [
        {
          "internalType": "bool",
          "name": "",
          "type": "bool"
        }
      ],
      "stateMutability": "view",
      "type": "function"
    },
    {
      "inputs": [],
      "name": "symbol",
      "outputs": [
        {
          "internalType": "string",
          "name": "",
          "type": "string"
        }
      ],
      "stateMutability": "view",
      "type": "function"
    },
    {
      "inputs": [
        {
          "internalType": "uint256",
          "name": "tokenId",
          "type": "uint256"
        }
      ],
      "name": "tokenURI",
      "outputs": [
        {
          "internalType": "string",
          "name": "",
          "type": "string"
        }
      ],
      "stateMutability": "view",
      "type": "function"
    },
    {
      "inputs": [
        {
          "internalType": "address",
          "name": "from",
          "type": "address"
        },
        {
          "internalType": "address",
          "name": "to",
          "type": "address"
        },
        {
          "internalType": "uint256",
          "name": "tokenId",
          "type": "uint256"
        }
      ],
      "name": "transferFrom",
      "outputs": [],
      "stateMutability": "nonpayable",
      "type": "function"
    },
    {
      "inputs": [
        {
          "internalType": "address",
          "name": "newOwner",
          "type": "address"
        }
      ],
      "name": "transferOwnership",
      "outputs": [],
      "stateMutability": "nonpayable",
      "type": "function"
    }
  ],
  "bytecode": "0x60806040523480156200001157600080fd5b506040516200333938038062003339833981810160405281019062000037919062000288565b806040518060400160405280600d81526020017f4d656d626572736869704e4654000000000000000000000000000000000000008152506040518060400160405280600481526020017f4d4e4654000000000000000000000000000000000000000000000000000000008152508160009081620000b5919062000534565b508060019081620000c7919062000534565b505050600073ffffffffffffffffffffffffffffffffffffffff168173ffffffffffffffffffffffffffffffffffffffff16036200013f5760006040517f1e4fbdf70000000000000000000000000000000000000000000000000000000081526004016200013691906200062c565b60405180910390fd5b62000150816200015860201b60201c565b505062000649565b6000600760009054906101000a900473ffffffffffffffffffffffffffffffffffffffff16905081600760006101000a81548173ffffffffffffffffffffffffffffffffffffffff021916908373ffffffffffffffffffffffffffffffffffffffff1602179055508173ffffffffffffffffffffffffffffffffffffffff168173ffffffffffffffffffffffffffffffffffffffff167f8be0079c531659141344cd1fd0a4f28419497f9722a3daafe3b4186f6b6457e060405160405180910390a35050565b600080fd5b600073ffffffffffffffffffffffffffffffffffffffff82169050919050565b6000620002508262000223565b9050919050565b620002628162000243565b81146200026e57600080fd5b50565b600081519050620002828162000257565b92915050565b600060208284031215620002a157620002a06200021e565b5b6000620002b18482850162000271565b91505092915050565b600081519050919050565b7f4e487b7100000000000000000000000000000000000000000000000000000000600052604160045260246000fd5b7f4e487b7100000000000000000000000000000000000000000000000000000000600052602260045260246000fd5b600060028204905060018216806200033c57607f821691505b602082108103620003525762000351620002f4565b5b50919050565b60008190508160005260206000209050919050565b60006020601f8301049050919050565b600082821b905092915050565b600060088302620003bc7fffffffffffffffffffffffffffffffffffffffffffffffffffffffffffffffff826200037d565b620003c886836200037d565b95508019841693508086168417925050509392505050565b6000819050919050565b6000819050919050565b6000620004156200040f6200040984620003e0565b620003ea565b620003e0565b9050919050565b6000819050919050565b6200043183620003f4565b6200044962000440826200041c565b8484546200038a565b825550505050565b600090565b6200046062000451565b6200046d81848462000426565b505050565b5b8181101562000495576200048960008262000456565b60018101905062000473565b5050565b601f821115620004e457620004ae8162000358565b620004b9846200036d565b81016020851015620004c9578190505b620004e1620004d8856200036d565b83018262000472565b50505b505050565b600082821c905092915050565b60006200050960001984600802620004e9565b1980831691505092915050565b6000620005248383620004f6565b9150826002028217905092915050565b6200053f82620002ba565b67ffffffffffffffff8111156200055b576200055a620002c5565b5b62000567825462000323565b6200057482828562000499565b600060209050601f831160018114620005ac576000841562000597578287015190505b620005a3858262000516565b86555062000613565b601f198416620005bc8662000358565b60005b82811015620005e657848901518255600182019150602085019450602081019050620005bf565b8683101562000606578489015162000602601f891682620004f6565b8355505b6001600288020188555050505b505050505050565b620006268162000243565b82525050565b60006020820190506200064360008301846200061b565b92915050565b612ce080620006596000396000f3fe608060405234801561001057600080fd5b506004361061012c5760003560e01c8063715018a6116100ad578063b88d4fde11610071578063b88d4fde1461032f578063b9b8f3151461034b578063c87b56dd14610380578063e985e9c5146103b0578063f2fde38b146103e05761012c565b8063715018a6146102af57806375794a3c146102b95780638da5cb5b146102d757806395d89b41146102f5578063a22cb465146103135761012c565b806338e21cce116100f457806338e21cce146101e757806342842e0e1461021757806357958d24146102335780636352211e1461024f57806370a082311461027f5761012c565b806301ffc9a71461013157806306fdde0314610161578063081812fc1461017f578063095ea7b3146101af57806323b872dd146101cb575b600080fd5b61014b60048036038101906101469190611f58565b6103fc565b6040516101589190611fa0565b60405180910390f35b61016961045d565b604051610176919061204b565b60405180910390f35b610199600480360381019061019491906120a3565b6104ef565b6040516101a69190612111565b60405180910390f35b6101c960048036038101906101c49190612158565b61050b565b005b6101e560048036038101906101e09190612198565b610521565b005b61020160048036038101906101fc91906121eb565b610623565b60405161020e9190611fa0565b60405180910390f35b610231600480360381019061022c9190612198565b610643565b005b61024d60048036038101906102489190612386565b610663565b005b610269600480360381019061026491906120a3565b610876565b6040516102769190612111565b60405180910390f35b610299600480360381019061029491906121eb565b610888565b6040516102a691906124a7565b60405180910390f35b6102b7610942565b005b6102c1610956565b6040516102ce91906124a7565b60405180910390f35b6102df61095c565b6040516102ec9190612111565b60405180910390f35b6102fd610986565b60405161030a919061204b565b60405180910390f35b61032d600480360381019061032891906124ee565b610a18565b005b610349600480360381019061034491906125cf565b610a2e565b005b610365600480360381019061036091906120a3565b610a53565b60405161037796959493929190612661565b60405180910390f35b61039a600480360381019061039591906120a3565b610c4e565b6040516103a7919061204b565b60405180910390f35b6103ca60048036038101906103c591906126d7565b610d61565b6040516103d79190611fa0565b60405180910390f35b6103fa60048036038101906103f591906121eb565b610df5565b005b6000634906490660e01b7bffffffffffffffffffffffffffffffffffffffffffffffffffffffff1916827bffffffffffffffffffffffffffffffffffffffffffffffffffffffff19161480610456575061045582610e7b565b5b9050919050565b60606000805461046c90612746565b80601f016020809104026020016040519081016040528092919081815260200182805461049890612746565b80156104e55780601f106104ba576101008083540402835291602001916104e5565b820191906000526020600020905b8154815290600101906020018083116104c857829003601f168201915b5050505050905090565b60006104fa82610f5d565b5061050482610fe5565b9050919050565b61051d8282610518611022565b61102a565b5050565b600073ffffffffffffffffffffffffffffffffffffffff168273ffffffffffffffffffffffffffffffffffffffff16036105935760006040517f64a0ae9200000000000000000000000000000000000000000000000000000000815260040161058a9190612111565b60405180910390fd5b60006105a783836105a2611022565b61103c565b90508373ffffffffffffffffffffffffffffffffffffffff168173ffffffffffffffffffffffffffffffffffffffff161461061d578382826040517f64283d7b00000000000000000000000000000000000000000000000000000000815260040161061493929190612777565b60405180910390fd5b50505050565b600a6020528060005260406000206000915054906101000a900460ff1681565b61065e83838360405180602001604052806000815250610a2e565b505050565b600a60003373ffffffffffffffffffffffffffffffffffffffff1673ffffffffffffffffffffffffffffffffffffffff16815260200190815260200160002060009054906101000a900460ff16156106f0576040517f08c379a00000000000000000000000000000000000000000000000000000000081526004016106e7906127fa565b60405180910390fd5b600060085490506107013382611256565b61070b8183611274565b6040518060c001604052808981526020018860ff1681526020018781526020018660ff1681526020018560ff1681526020018481525060096000838152602001908152602001600020600082015181600001908161076991906129c6565b5060208201518160010160006101000a81548160ff021916908360ff16021790555060408201518160020190816107a091906129c6565b5060608201518160030160006101000a81548160ff021916908360ff16021790555060808201518160030160016101000a81548160ff021916908360ff16021790555060a08201518160040190816107f891906129c6565b509050506001600a60003373ffffffffffffffffffffffffffffffffffffffff1673ffffffffffffffffffffffffffffffffffffffff16815260200190815260200160002060006101000a81548160ff0219169083151502179055506008600081548092919061086790612ac7565b91905055505050505050505050565b600061088182610f5d565b9050919050565b60008073ffffffffffffffffffffffffffffffffffffffff168273ffffffffffffffffffffffffffffffffffffffff16036108fb5760006040517f89c62b640000000000000000000000000000000000000000000000000000000081526004016108f29190612111565b60405180910390fd5b600360008373ffffffffffffffffffffffffffffffffffffffff1673ffffffffffffffffffffffffffffffffffffffff168152602001908152602001600020549050919050565b61094a6112d0565b6109546000611357565b565b60085481565b6000600760009054906101000a900473ffffffffffffffffffffffffffffffffffffffff16905090565b60606001805461099590612746565b80601f01602080910402602001604051908101604052809291908181526020018280546109c190612746565b8015610a0e5780601f106109e357610100808354040283529160200191610a0e565b820191906000526020600020905b8154815290600101906020018083116109f157829003601f168201915b5050505050905090565b610a2a610a23611022565b838361141d565b5050565b610a39848484610521565b610a4d610a44611022565b8585858561158c565b50505050565b6009602052806000526040600020600091509050806000018054610a7690612746565b80601f0160208091040260200160405190810160405280929190818152602001828054610aa290612746565b8015610aef5780601f10610ac457610100808354040283529160200191610aef565b820191906000526020600020905b815481529060010190602001808311610ad257829003601f168201915b5050505050908060010160009054906101000a900460ff1690806002018054610b1790612746565b80601f0160208091040260200160405190810160405280929190818152602001828054610b4390612746565b8015610b905780601f10610b6557610100808354040283529160200191610b90565b820191906000526020600020905b815481529060010190602001808311610b7357829003601f168201915b5050505050908060030160009054906101000a900460ff16908060030160019054906101000a900460ff1690806004018054610bcb90612746565b80601f0160208091040260200160405190810160405280929190818152602001828054610bf790612746565b8015610c445780601f10610c1957610100808354040283529160200191610c44565b820191906000526020600020905b815481529060010190602001808311610c2757829003601f168201915b5050505050905086565b6060610c5982610f5d565b506000600660008481526020019081526020016000208054610c7a90612746565b80601f0160208091040260200160405190810160405280929190818152602001828054610ca690612746565b8015610cf35780601f10610cc857610100808354040283529160200191610cf3565b820191906000526020600020905b815481529060010190602001808311610cd657829003601f168201915b505050505090506000610d0461173d565b90506000815103610d19578192505050610d5c565b600082511115610d4e578082604051602001610d36929190612b4b565b60405160208183030381529060405292505050610d5c565b610d5784611754565b925050505b919050565b6000600560008473ffffffffffffffffffffffffffffffffffffffff1673ffffffffffffffffffffffffffffffffffffffff16815260200190815260200160002060008373ffffffffffffffffffffffffffffffffffffffff1673ffffffffffffffffffffffffffffffffffffffff16815260200190815260200160002060009054906101000a900460ff16905092915050565b610dfd6112d0565b600073ffffffffffffffffffffffffffffffffffffffff168173ffffffffffffffffffffffffffffffffffffffff1603610e6f5760006040517f1e4fbdf7000000000000000000000000000000000000000000000000000000008152600401610e669190612111565b60405180910390fd5b610e7881611357565b50565b60007f80ac58cd000000000000000000000000000000000000000000000000000000007bffffffffffffffffffffffffffffffffffffffffffffffffffffffff1916827bffffffffffffffffffffffffffffffffffffffffffffffffffffffff19161480610f4657507f5b5e139f000000000000000000000000000000000000000000000000000000007bffffffffffffffffffffffffffffffffffffffffffffffffffffffff1916827bffffffffffffffffffffffffffffffffffffffffffffffffffffffff1916145b80610f565750610f55826117bd565b5b9050919050565b600080610f6983611827565b9050600073ffffffffffffffffffffffffffffffffffffffff168173ffffffffffffffffffffffffffffffffffffffff1603610fdc57826040517f7e273289000000000000000000000000000000000000000000000000000000008152600401610fd391906124a7565b60405180910390fd5b80915050919050565b60006004600083815260200190815260200160002060009054906101000a900473ffffffffffffffffffffffffffffffffffffffff169050919050565b600033905090565b6110378383836001611864565b505050565b60008061104884611827565b9050600073ffffffffffffffffffffffffffffffffffffffff168373ffffffffffffffffffffffffffffffffffffffff161461108a57611089818486611a29565b5b600073ffffffffffffffffffffffffffffffffffffffff168173ffffffffffffffffffffffffffffffffffffffff161461111b576110cc600085600080611864565b6001600360008373ffffffffffffffffffffffffffffffffffffffff1673ffffffffffffffffffffffffffffffffffffffff168152602001908152602001600020600082825403925050819055505b600073ffffffffffffffffffffffffffffffffffffffff168573ffffffffffffffffffffffffffffffffffffffff161461119e576001600360008773ffffffffffffffffffffffffffffffffffffffff1673ffffffffffffffffffffffffffffffffffffffff168152602001908152602001600020600082825401925050819055505b846002600086815260200190815260200160002060006101000a81548173ffffffffffffffffffffffffffffffffffffffff021916908373ffffffffffffffffffffffffffffffffffffffff160217905550838573ffffffffffffffffffffffffffffffffffffffff168273ffffffffffffffffffffffffffffffffffffffff167fddf252ad1be2c89b69c2b068fc378daa952ba7f163c4a11628f55a4df523b3ef60405160405180910390a4809150509392505050565b611270828260405180602001604052806000815250611aed565b5050565b8060066000848152602001908152602001600020908161129491906129c6565b507ff8e1a15aba9398e019f0b49df1a4fde98ee17ae345cb5f6b5e2c27f5033e8ce7826040516112c491906124a7565b60405180910390a15050565b6112d8611022565b73ffffffffffffffffffffffffffffffffffffffff166112f661095c565b73ffffffffffffffffffffffffffffffffffffffff161461135557611319611022565b6040517f118cdaa700000000000000000000000000000000000000000000000000000000815260040161134c9190612111565b60405180910390fd5b565b6000600760009054906101000a900473ffffffffffffffffffffffffffffffffffffffff16905081600760006101000a81548173ffffffffffffffffffffffffffffffffffffffff021916908373ffffffffffffffffffffffffffffffffffffffff1602179055508173ffffffffffffffffffffffffffffffffffffffff168173ffffffffffffffffffffffffffffffffffffffff167f8be0079c531659141344cd1fd0a4f28419497f9722a3daafe3b4186f6b6457e060405160405180910390a35050565b600073ffffffffffffffffffffffffffffffffffffffff168273ffffffffffffffffffffffffffffffffffffffff160361148e57816040517f5b08ba180000000000000000000000000000000000000000000000000000000081526004016114859190612111565b60405180910390fd5b80600560008573ffffffffffffffffffffffffffffffffffffffff1673ffffffffffffffffffffffffffffffffffffffff16815260200190815260200160002060008473ffffffffffffffffffffffffffffffffffffffff1673ffffffffffffffffffffffffffffffffffffffff16815260200190815260200160002060006101000a81548160ff0219169083151502179055508173ffffffffffffffffffffffffffffffffffffffff168373ffffffffffffffffffffffffffffffffffffffff167f17307eab39ab6107e8899845ad3d59bd9653f200f220920489ca2b5937696c318360405161157f9190611fa0565b60405180910390a3505050565b60008373ffffffffffffffffffffffffffffffffffffffff163b1115611736578273ffffffffffffffffffffffffffffffffffffffff1663150b7a02868685856040518563ffffffff1660e01b81526004016115eb9493929190612bc4565b6020604051808303816000875af192505050801561162757506040513d601f19601f820116820180604052508101906116249190612c25565b60015b6116ab573d8060008114611657576040519150601f19603f3d011682016040523d82523d6000602084013e61165c565b606091505b5060008151036116a357836040517f64a0ae9200000000000000000000000000000000000000000000000000000000815260040161169a9190612111565b60405180910390fd5b805160208201fd5b63150b7a0260e01b7bffffffffffffffffffffffffffffffffffffffffffffffffffffffff1916817bffffffffffffffffffffffffffffffffffffffffffffffffffffffff19161461173457836040517f64a0ae9200000000000000000000000000000000000000000000000000000000815260040161172b9190612111565b60405180910390fd5b505b5050505050565b606060405180602001604052806000815250905090565b606061175f82610f5d565b50600061176a61173d565b9050600081511161178a57604051806020016040528060008152506117b5565b8061179484611b11565b6040516020016117a5929190612b4b565b6040516020818303038152906040525b915050919050565b60007f01ffc9a7000000000000000000000000000000000000000000000000000000007bffffffffffffffffffffffffffffffffffffffffffffffffffffffff1916827bffffffffffffffffffffffffffffffffffffffffffffffffffffffff1916149050919050565b60006002600083815260200190815260200160002060009054906101000a900473ffffffffffffffffffffffffffffffffffffffff169050919050565b808061189d5750600073ffffffffffffffffffffffffffffffffffffffff168273ffffffffffffffffffffffffffffffffffffffff1614155b156119d15760006118ad84610f5d565b9050600073ffffffffffffffffffffffffffffffffffffffff168373ffffffffffffffffffffffffffffffffffffffff161415801561191857508273ffffffffffffffffffffffffffffffffffffffff168173ffffffffffffffffffffffffffffffffffffffff1614155b801561192b57506119298184610d61565b155b1561196d57826040517fa9fbf51f0000000000000000000000000000000000000000000000000000000081526004016119649190612111565b60405180910390fd5b81156119cf57838573ffffffffffffffffffffffffffffffffffffffff168273ffffffffffffffffffffffffffffffffffffffff167f8c5be1e5ebec7d5bd14f71427d1e84f3dd0314c0f7b2291e5b200ac8c7c3b92560405160405180910390a45b505b836004600085815260200190815260200160002060006101000a81548173ffffffffffffffffffffffffffffffffffffffff021916908373ffffffffffffffffffffffffffffffffffffffff16021790555050505050565b611a34838383611bdf565b611ae857600073ffffffffffffffffffffffffffffffffffffffff168373ffffffffffffffffffffffffffffffffffffffff1603611aa957806040517f7e273289000000000000000000000000000000000000000000000000000000008152600401611aa091906124a7565b60405180910390fd5b81816040517f177e802f000000000000000000000000000000000000000000000000000000008152600401611adf929190612c52565b60405180910390fd5b505050565b611af78383611ca0565b611b0c611b02611022565b600085858561158c565b505050565b606060006001611b2084611d99565b01905060008167ffffffffffffffff811115611b3f57611b3e612222565b5b6040519080825280601f01601f191660200182016040528015611b715781602001600182028036833780820191505090505b509050600082602083010190505b600115611bd4578080600190039150507f3031323334353637383961626364656600000000000000000000000000000000600a86061a8153600a8581611bc857611bc7612c7b565b5b04945060008503611b7f575b819350505050919050565b60008073ffffffffffffffffffffffffffffffffffffffff168373ffffffffffffffffffffffffffffffffffffffff1614158015611c9757508273ffffffffffffffffffffffffffffffffffffffff168473ffffffffffffffffffffffffffffffffffffffff161480611c585750611c578484610d61565b5b80611c9657508273ffffffffffffffffffffffffffffffffffffffff16611c7e83610fe5565b73ffffffffffffffffffffffffffffffffffffffff16145b5b90509392505050565b600073ffffffffffffffffffffffffffffffffffffffff168273ffffffffffffffffffffffffffffffffffffffff1603611d125760006040517f64a0ae92000000000000000000000000000000000000000000000000000000008152600401611d099190612111565b60405180910390fd5b6000611d208383600061103c565b9050600073ffffffffffffffffffffffffffffffffffffffff168173ffffffffffffffffffffffffffffffffffffffff1614611d945760006040517f73c6ac6e000000000000000000000000000000000000000000000000000000008152600401611d8b9190612111565b60405180910390fd5b505050565b600080600090507a184f03e93ff9f4daa797ed6e38ed64bf6a1f0100000000000000008310611df7577a184f03e93ff9f4daa797ed6e38ed64bf6a1f0100000000000000008381611ded57611dec612c7b565b5b0492506040810190505b6d04ee2d6d415b85acef81000000008310611e34576d04ee2d6d415b85acef81000000008381611e2a57611e29612c7b565b5b0492506020810190505b662386f26fc100008310611e6357662386f26fc100008381611e5957611e58612c7b565b5b0492506010810190505b6305f5e1008310611e8c576305f5e1008381611e8257611e81612c7b565b5b0492506008810190505b6127108310611eb1576127108381611ea757611ea6612c7b565b5b0492506004810190505b60648310611ed45760648381611eca57611ec9612c7b565b5b0492506002810190505b600a8310611ee3576001810190505b80915050919050565b6000604051905090565b600080fd5b600080fd5b60007fffffffff0000000000000000000000000000000000000000000000000000000082169050919050565b611f3581611f00565b8114611f4057600080fd5b50565b600081359050611f5281611f2c565b92915050565b600060208284031215611f6e57611f6d611ef6565b5b6000611f7c84828501611f43565b91505092915050565b60008115159050919050565b611f9a81611f85565b82525050565b6000602082019050611fb56000830184611f91565b92915050565b600081519050919050565b600082825260208201905092915050565b60005b83811015611ff5578082015181840152602081019050611fda565b60008484015250505050565b6000601f19601f8301169050919050565b600061201d82611fbb565b6120278185611fc6565b9350612037818560208601611fd7565b61204081612001565b840191505092915050565b600060208201905081810360008301526120658184612012565b905092915050565b6000819050919050565b6120808161206d565b811461208b57600080fd5b50565b60008135905061209d81612077565b92915050565b6000602082840312156120b9576120b8611ef6565b5b60006120c78482850161208e565b91505092915050565b600073ffffffffffffffffffffffffffffffffffffffff82169050919050565b60006120fb826120d0565b9050919050565b61210b816120f0565b82525050565b60006020820190506121266000830184612102565b92915050565b612135816120f0565b811461214057600080fd5b50565b6000813590506121528161212c565b92915050565b6000806040838503121561216f5761216e611ef6565b5b600061217d85828601612143565b925050602061218e8582860161208e565b9150509250929050565b6000806000606084860312156121b1576121b0611ef6565b5b60006121bf86828701612143565b93505060206121d086828701612143565b92505060406121e18682870161208e565b9150509250925092565b60006020828403121561220157612200611ef6565b5b600061220f84828501612143565b91505092915050565b600080fd5b600080fd5b7f4e487b7100000000000000000000000000000000000000000000000000000000600052604160045260246000fd5b61225a82612001565b810181811067ffffffffffffffff8211171561227957612278612222565b5b80604052505050565b600061228c611eec565b90506122988282612251565b919050565b600067ffffffffffffffff8211156122b8576122b7612222565b5b6122c182612001565b9050602081019050919050565b82818337600083830152505050565b60006122f06122eb8461229d565b612282565b90508281526020810184848401111561230c5761230b61221d565b5b6123178482856122ce565b509392505050565b600082601f83011261233457612333612218565b5b81356123448482602086016122dd565b91505092915050565b600060ff82169050919050565b6123638161234d565b811461236e57600080fd5b50565b6000813590506123808161235a565b92915050565b600080600080600080600060e0888a0312156123a5576123a4611ef6565b5b600088013567ffffffffffffffff8111156123c3576123c2611efb565b5b6123cf8a828b0161231f565b97505060206123e08a828b01612371565b965050604088013567ffffffffffffffff81111561240157612400611efb565b5b61240d8a828b0161231f565b955050606061241e8a828b01612371565b945050608061242f8a828b01612371565b93505060a088013567ffffffffffffffff8111156124505761244f611efb565b5b61245c8a828b0161231f565b92505060c088013567ffffffffffffffff81111561247d5761247c611efb565b5b6124898a828b0161231f565b91505092959891949750929550565b6124a18161206d565b82525050565b60006020820190506124bc6000830184612498565b92915050565b6124cb81611f85565b81146124d657600080fd5b50565b6000813590506124e8816124c2565b92915050565b6000806040838503121561250557612504611ef6565b5b600061251385828601612143565b9250506020612524858286016124d9565b9150509250929050565b600067ffffffffffffffff82111561254957612548612222565b5b61255282612001565b9050602081019050919050565b600061257261256d8461252e565b612282565b90508281526020810184848401111561258e5761258d61221d565b5b6125998482856122ce565b509392505050565b600082601f8301126125b6576125b5612218565b5b81356125c684826020860161255f565b91505092915050565b600080600080608085870312156125e9576125e8611ef6565b5b60006125f787828801612143565b945050602061260887828801612143565b93505060406126198782880161208e565b925050606085013567ffffffffffffffff81111561263a57612639611efb565b5b612646878288016125a1565b91505092959194509250565b61265b8161234d565b82525050565b600060c082019050818103600083015261267b8189612012565b905061268a6020830188612652565b818103604083015261269c8187612012565b90506126ab6060830186612652565b6126b86080830185612652565b81810360a08301526126ca8184612012565b9050979650505050505050565b600080604083850312156126ee576126ed611ef6565b5b60006126fc85828601612143565b925050602061270d85828601612143565b9150509250929050565b7f4e487b7100000000000000000000000000000000000000000000000000000000600052602260045260246000fd5b6000600282049050600182168061275e57607f821691505b60208210810361277157612770612717565b5b50919050565b600060608201905061278c6000830186612102565b6127996020830185612498565b6127a66040830184612102565b949350505050565b7f4e465420616c726561647920636c61696d656400000000000000000000000000600082015250565b60006127e4601383611fc6565b91506127ef826127ae565b602082019050919050565b60006020820190508181036000830152612813816127d7565b9050919050565b60008190508160005260206000209050919050565b60006020601f8301049050919050565b600082821b905092915050565b60006008830261287c7fffffffffffffffffffffffffffffffffffffffffffffffffffffffffffffffff8261283f565b612886868361283f565b95508019841693508086168417925050509392505050565b6000819050919050565b60006128c36128be6128b98461206d565b61289e565b61206d565b9050919050565b6000819050919050565b6128dd836128a8565b6128f16128e9826128ca565b84845461284c565b825550505050565b600090565b6129066128f9565b6129118184846128d4565b505050565b5b818110156129355761292a6000826128fe565b600181019050612917565b5050565b601f82111561297a5761294b8161281a565b6129548461282f565b81016020851015612963578190505b61297761296f8561282f565b830182612916565b50505b505050565b600082821c905092915050565b600061299d6000198460080261297f565b1980831691505092915050565b60006129b6838361298c565b9150826002028217905092915050565b6129cf82611fbb565b67ffffffffffffffff8111156129e8576129e7612222565b5b6129f28254612746565b6129fd828285612939565b600060209050601f831160018114612a305760008415612a1e578287015190505b612a2885826129aa565b865550612a90565b601f198416612a3e8661281a565b60005b82811015612a6657848901518255600182019150602085019450602081019050612a41565b86831015612a835784890151612a7f601f89168261298c565b8355505b6001600288020188555050505b505050505050565b7f4e487b7100000000000000000000000000000000000000000000000000000000600052601160045260246000fd5b6000612ad28261206d565b91507fffffffffffffffffffffffffffffffffffffffffffffffffffffffffffffffff8203612b0457612b03612a98565b5b600182019050919050565b600081905092915050565b6000612b2582611fbb565b612b2f8185612b0f565b9350612b3f818560208601611fd7565b80840191505092915050565b6000612b578285612b1a565b9150612b638284612b1a565b91508190509392505050565b600081519050919050565b600082825260208201905092915050565b6000612b9682612b6f565b612ba08185612b7a565b9350612bb0818560208601611fd7565b612bb981612001565b840191505092915050565b6000608082019050612bd96000830187612102565b612be66020830186612102565b612bf36040830185612498565b8181036060830152612c058184612b8b565b905095945050505050565b600081519050612c1f81611f2c565b92915050565b600060208284031215612c3b57612c3a611ef6565b5b6000612c4984828501612c10565b91505092915050565b6000604082019050612c676000830185612102565b612c746020830184612498565b9392505050565b7f4e487b7100000000000000000000000000000000000000000000000000000000600052601260045260246000fdfea26469706673582212204e05809f2e287ee4d44c13bd1dc0ee1df3caf52c0fecfcd041087fd2797c579f64736f6c63430008180033",
  "linkReferences": {},
  "deployedLinkReferences": {}
}